:020000040800F2
:10000000F03700201103000805240008FD23000834
:1000100001240008CD200008632C00080000000027
:10002000000000000000000000000000790200084D
:100030008522000800000000BD0200080927000812
:100040002B0300082B0300082B0300082B030008D8
:100050002B0300082B0300082B0300082B030008C8
:100060002B0300082B0300082B0300082B030008B8
:100070002B0300082B0300082B0300082B030008A8
:100080002B0300082B0300082B0300082B03000898
:100090002B0300082B0300082B0300082B03000888
:1000A0002B0300082B0300082B0300082B03000878
:1000B0002B0300082B0300082B0300082B03000868
:1000C0002B0300082B0300082B0300082B03000858
:1000D0002B030008152900082B0300089D290008A0
:1000E0002B0300082B0300082B0300082B03000838
:1000F0002B0300082B0300082B0300082B03000828
:100100002B0300082B0300082B0300082B03000817
:100110002B0300082B0300082B0300086D270008A1
:100120002B0300082B0300082B0300082B030008F7
:1001300000F002F800F090F80AA090E8000C824469
:100140008344AAF10107DA4501D100F085F8AFF246
:10015000090EBAE80F0013F0010F18BFFB1A43F0A5
:1001600001031847B8600000D8600000103A24BFAF
:1001700078C878C1FAD8520724BF30C830C144BF0C
:1001800004680C607047000000230024002500264E
:10019000103A28BF78C1FBD8520728BF30C148BFEA
:1001A0000B6070476E2900F05883702900F0D186EB
:1001B000662905F05A86652905F05786672905F0F6
:1001C0005486612905F0538603681B0A28BF41F055
:1001D0008001692900F00681642900F003817529F6
:1001E00000F000816F2900F05E86782900F09D867E
:1001F000E92900F0F985E42900F0F685F52900F0F9
:10020000F385EF2900F05B86F82900F09C860368EF
:10021000DB0928BF41F08001632900F0688573295C
:1002200000F06D85E32901F00581F32901F00A81D1
:10023000002070471FB500F0EBFE040000200021F5
:1002400005F0FAF8401C60600020002105F0DEF89F
:10025000E0601FBD10B510BD01F092F91146FFF727
:10026000E9FF02F0EDFF01F0B9F903B4FFF7F2FF87
:1002700003BC02F013FD0000224B19680868B0E8C7
:10028000F00F80F30988BFF36F8F4FF0000080F309
:1002900011884EF00D0E70470000000006480068FF
:1002A000006880F3088862B661B6BFF34F8FBFF372
:1002B0006F8F00DF00BF00BF08ED00E0EFF30980A3
:1002C000BFF36F8F0F4B1A6820E9F00F106008B56D
:1002D0004FF0500080F31188BFF34F8FBFF36F8F43
:1002E00004F090FA4FF0000080F31188BDE8084058
:1002F00019680868B0E8F00F80F30988BFF36F8FC2
:10030000704700BF64000020EFF3058070470000D5
:100310000948804709480047FEE7FEE7FEE7FEE799
:10032000FEE7FEE7FEE7FEE7FEE7FEE704480549D5
:10033000054A064B704700000D27000831010008F0
:10034000F0310020F0370020F0330020F03300209F
:10035000704700001CB50C46064B7B446946009074
:10036000204600F0A2FC04460020694600F0B0FCE4
:1003700020461CBD730900000FB4044910B503AA40
:10038000029800F0C1FC10BC5DF814FB18000020BE
:1003900070B50C460546012A05D02878800600D5A0
:1003A000EA69002302E0012305E05B1C934202D2CC
:1003B000E05C0028F9D1A869E618C01AA861286A8B
:1003C00018442862284600F0B6F904E0D5E9012176
:1003D00014F8010B9047B442F8D3284600F0C1F955
:1003E00070BD00002DE9F041064600241068752913
:1003F000314616A510D000F0C5F9002802DA4042B7
:1004000013A507E031688A0701D512A502E0490764
:1004100004D511A5012401E000F0BDF900210A2254
:1004200006F1240709E0B0FBF2FCB0FBF2F302FB9B
:100430001C00303078541846491C0028F3D123465C
:100440002A463046BDE8F04100F0AEB90000000099
:100450002D0000002B000000200000002DE9F05FBF
:10046000894604464FF0000ADFF874B1FB44C0F837
:1004700020A02046E1688847002874D0252806D0AF
:10048000D4E901219047206A401C2062F1E7002650
:100490005F462046E16888472028054607DB312D66
:1004A00005D2781910F8200C08B10643F1E7B0071F
:1004B00001D526F00406C4F81CA00027C4F818A033
:1004C0002A2D09D0284602F0E2FB38B304EB870856
:1004D000303DC8F8185019E059F8041B204604EBC9
:1004E00087029161E1688847012F054618D1E069CC
:1004F000002820DA26F020061DE0D8F8180000EBCE
:10050000800005EB40003038C8F818002046E1684C
:100510008847054602F0BBFB0028EED1012F0AD028
:100520002E2D08D12046E16888477F1C0546022F02
:1005300046F02006C4DBA069002803DA404246F0FA
:100540000106A061F00701D026F010066C2D0BD03B
:10055000682D09D04C2D39D06A2D35D0742D35D069
:100560007A2D33D016E038E0E1682F4620468847E0
:10057000B842054609D16C2F26D04FF48060E1685F
:10058000064320468847054604E06C2F1AD04FF4F6
:10059000807006430DB3A5F14100192802D820351B
:1005A00046F400664A462946204626604E46FFF736
:1005B000F9FD80B101280BD0F61D26F0070000F1EF
:1005C000080956E74020E4E78020D8E70020D6E776
:1005D00006F104094DE7284652E7206ABDE8F09F7E
:1005E000025A000030B505460B462A4613F8014B67
:1005F00012F8010B08B1A042F8D01CB1002802D0BB
:100600006D1CF1E7284630BD10B5431C02E010F820
:10061000011B71B18107FAD14FF0013202C88C1A67
:100620008C4314EAC211F9D0C01A0A0603D0C01EC6
:1006300010BDC01A10BD0A0401D0801E10BD0902F1
:10064000FCD0401E10BD032A40F2308010F0030C95
:1006500000F0158011F8013BBCF1020F624498BF15
:1006600011F801CB00F8013B38BF11F8013BA2F1B2
:10067000040298BF00F801CB38BF00F8013B11F02D
:10068000030300F07184083AC0F0088051F8043B7D
:10069000083A51F804CBA0E80810F5E7121D5CBF3A
:1006A00051F8043B40F8043BAFF30080D20724BF6D
:1006B00011F8013B11F801CB48BF11F8012B24BF01
:1006C00000F8013B00F801CB48BF00F8012B704750
:1006D00002F0FF0343EA032242EA024200F078BC40
:1006E0004FF0000200B5134694469646203922BFCB
:1006F000A0E80C50A0E80C50B1F12001BFF4F7AF16
:10070000090728BFA0E80C5048BF0CC05DF804EBF7
:10071000890028BF40F8042B08BF704748BF20F865
:10072000022B11F0804F18BF00F8012B7047704763
:1007300070477047704770B5044685690068C10608
:1007400001D5302600E02026C00707D070BDD4E9CF
:10075000012130469047206A401C20626D1EF6D56C
:1007600070BD70B5044685690078C00707D170BDBB
:10077000D4E9012120209047206A401C20626D1E90
:10078000F6D570BD09684A0501D540B27047C90564
:10079000FCD500B2704709684A0501D5C0B2704760
:1007A000C905FCD580B270472DE9F0470D46994642
:1007B0009246044600F124080168880604D5E069E1
:1007C00021F01001216000E00120A84201DD471B5B
:1007D00000E00027A1697A1902EB0900081AA0615C
:1007E0002078C00602D42046FFF7A5FF002608E0C7
:1007F000D4E901211AF806009047206A401C761CB3
:1008000020624E45F4DB2078C0060AD52046FFF76B
:1008100092FF06E0D4E9012130209047206A401C75
:100820002062381EA7F10107F4DC07E0D4E90121BA
:1008300018F805009047206A401C2062281EA5F188
:100840000105F3DC2046FFF78CFF2078000602D577
:100850000220BDE8F0870120FBE711680268006A0A
:10086000530501D508700AE0D30501D5088006E0DC
:10087000130603D5C217C1E9000200E00860012099
:10088000704770472DE9FF4F0C461E464FF0FF376B
:100890008BB0D2E90001DDF860800A908A46C1F38E
:1008A0000A5505B93D46002108464FF00000BAF14F
:1008B000000F00F4400005DA00EB80004FF4400127
:1008C00001EA50004FEA9059B9F1010F00DDB94635
:1008D0000A9850EA4A000ED044F61050A5F2FF35AF
:1008E00045432F14B8F1000F1ED07542291E1EDD9E
:1008F000C9F100021CE0B8F1010F4FF0000001D077
:10090000302103E0F24305E02154401CB042FBDB00
:1009100030460022002121540B99C1F80880C1E91A
:1009200000200FB0BDE8F08FBD1B6D1CDEE74A460E
:1009300000DA694206A800F089FD06AB93E80700DB
:1009400003AB83E8070050460A9900F091FE8DE85A
:100950000700A0F500501F3800900398002D0ADD15
:1009600042F21F014A460844002303A90390684647
:1009700001F0FAF809E0A0F500504A461F380023BC
:1009800003A90390684601F004F98DE8070000040C
:10099000000C03D04FF0FF30410800E01046B8F1E2
:1009A000000F03D00022009215461EE0751E05D4EC
:1009B00000F032FB303262556D1EF9D5B34601228C
:1009C000084302D000227F1C04E02078302801D1A7
:1009D00000227F1E002A099784D01DE0112D07DA1E
:1009E00000F01AFB303262556D1C50EA0102F5D15D
:1009F000084302D00098C8B10EE00021681E05E04F
:100A0000235C625C63542254401E491C8142F7DB24
:100A1000AB46A81B401E0990002004F80B000B9861
:100A2000099AC0F80880C0E9002B7AE711264FF038
:100A3000000857E72DE9F04F88460446D21D22F002
:100A4000070191B0D1E90001CDE90A0102F00BF9EB
:100A500002460B98C00F01D02D2007E020688107C7
:100A600001D52B2002E0202101EAC000032A0990D1
:100A700001D0072A05DB03464146204600F090FCE2
:100A80000BE12078800601D5E06900E00620B8F18E
:100A9000650F814606D0B8F1660F18D0B8F1670F20
:100AA00070D131E00020B9F1110F009001DB11236A
:100AB00001E009F101030AAA01A90CA8FFF7E2FE6F
:100AC000DDE90C70002609F10105834647E00120AD
:100AD0004B4600904FF000470AAA01A90CA8FFF767
:100AE000D1FEDDE90DB00C995D46002610B909F183
:100AF00001000D18B9EB050003D4C0F1FF3609F170
:100B00000105A5EB09002BE0B9F1010F01DA4FF067
:100B100001090020B9F1110F0090484601DD1123B1
:100B200000E003460AAA01A90CA8FFF7ABFEDDE925
:100B30000C704D4600268346207800070AD4AB454A
:100B400000DA5D4601A8012D04DD411911F8011CF0
:100B5000302907D04F4502DA17F1040F04DA0120DB
:100B600082460FE06D1EEEE7002F02DCED1B3E44D7
:100B700003E0781CA84200DD7D1CB81B00F1010ACF
:100B80004FF000472078000703D4AA4501DB4FF05F
:100B9000FF3A0021B7F1004F0DF143088DF84310E3
:100BA00024D002202B23002F01DA7F422D230A219B
:100BB000021EA0F1010000DC5FB197FBF1FC97FB86
:100BC000F1F201FB1C7C17460CF1300C08F801CD4A
:100BD000EEE7A8F1010003702188090501D5452140
:100BE00000E06521A0F1010800F8011C09980FA997
:100BF000A1EB0807FF1D00B10120411901EBEA70CC
:100C0000A1693844081A401EA0612078C00602D4A9
:100C10002046FFF790FD099828B1D4E901219047BB
:100C2000206A401C20622078C00622D52046FFF7AB
:100C300082FD1EE0002E04DBB34502DD01A8805DCD
:100C400000E03020D4E901219047206A401C206256
:100C5000761CAAF101005FEA000A0AD100F0D8F977
:100C6000C0680168405CD4E901219047206A401CBB
:100C70002062281EA5F10105DCDC07E0D4E9012192
:100C800018F8010B9047206A401C2062381EA7F11B
:100C90000107F3DC2046FFF764FD032011B041E6B5
:100CA00001694A1C02610878704700B58FB0CDE930
:100CB00001310021059105497944CDE90310114620
:100CC0006846FFF7CBFB0FB000BD0000E5FFFFFF5C
:100CD0000A6802F8010B0A60704710B5436913B146
:100CE000AFF3008001E0FFF753FB012010BD127845
:100CF00000F124010A7000224A700122EDE7116818
:100D00004FF0FF32E9E70000074B70B50D467B441A
:100D1000FFF7CBFF0446284600F00AFC10B14FF065
:100D2000FF3070BD204670BDDB2400002DE9FF5F61
:100D300015468A460446DFF8AC80F8440027D8E917
:100D400000103E46CDE9001010E03AF816106A4651
:100D500002A800F0F1FB411C07D02178890603D5D9
:100D6000E269391891420DD80744761C2078800634
:100D700002D5E069B84205DDAE42E6DB3AF816007E
:100D80000028E2D1A069C01BA0612046FFF7D3FC78
:100D9000D8E90010CDE90010002017E03AF818104B
:100DA0006A4602A800F0C8FBB0F1FF3F81460BD0B5
:100DB00000250DF1080B05E0D4E901211BF8050021
:100DC00090476D1C4D45F7D308F10100B0428046B5
:100DD000E4DB206A384420622046FFF7C2FCBDE80D
:100DE000FF9F0000465100002DE9F0418046D21DD2
:100DF00022F007020025D2E90002F52915A614D039
:100E0000011E72F1000106DA0023D0EB030063EB50
:100E1000020211A608E0D8F800108B0701D50FA632
:100E200002E0490701D50EA601251146002408F16C
:100E3000240704E000F0F0F830323A55641C50EA20
:100E40000102F7D12B46324621464046BDE8F0412B
:100E5000FFF7AABC000000002D0000002B000000DE
:100E60002000000030B4002100F1240408E002F06A
:100E70000705D208303542EA4372DB086554491C45
:100E800052EA0305F3D10468002310A2250707D511
:100E9000A40600D421B1C46901230DA2641EC4615B
:100EA00030BCFFF781BC10B5044621461068FFF73F
:100EB00072FC02462046BDE810400023D2E7D21D56
:100EC00022F00701D1E90023CCE700000000000078
:100ED00030000000F0B40D460188090502D5214C10
:100EE0007C4402E01F4C7C440E34002100F12406B7
:100EF00008E002F00F071209E75D42EA03721B09DE
:100F00007754491C52EA0307F3D1027800231207F1
:100F100004D5702D06D009B1022311342246F0BC4D
:100F2000FFF742BC01231034F8E770B504460D46C4
:100F300021461068FFF72FFC024629462046BDE8EF
:100F400070400023C6E7D21D22F00703D3E9002337
:100F5000C0E70368126843F0200303600823C361FD
:100F60000023B7E7A84F000010B5203AC0F00B806F
:100F7000B1E81850203AA0E81850B1E81850A0E89D
:100F80001850BFF4F5AF5FEA027C24BFB1E81850F7
:100F9000A0E8185044BF18C918C0BDE810405FEA67
:100FA000827C24BF51F8043B40F8043B08BF7047E3
:100FB000D20728BF31F8023B48BF11F8012B28BFE8
:100FC00020F8023B48BF00F8012B70474FF00002A9
:100FD0000429C0F0128010F0030C3FF483ABCCF175
:100FE000040CBCF1020F18BF00F8012BA8BF20F8B9
:100FF000022BA1EB0C01FFF775BB5FEAC17C24BF9C
:1010000000F8012B00F8012B48BF00F8012B7047B6
:1010100000487047B031002030B5B0F10A024FEA05
:10102000900E71F100034EEA817EB0EB0E0061EB91
:1010300091014FEA101E4EEA017E10EB0E0041EBCB
:1010400011114FEA102E4EEA016E10EB0E0041EB2B
:1010500011214FEA104E4EEA014E10EB0E0041EB0B
:101060001141401841F100014FEAD00040EA4170BF
:101070004FEAD10110EB80054FEA810444EA9074F5
:1010800044EB01046D1944EB0404521BA3414FF0DF
:10109000000348BF0A3200D530BD401C41F10001B9
:1010A00030BD00002DE9F04F04460D46D21D22F060
:1010B000070089B0D0E900974846394601F0D3FDD2
:1010C0000246F80F01D02D2307E02068810701D5E3
:1010D0002B2302E0202101EAC0038DF820300BB160
:1010E000012000E00020032A824601D0072A04DB09
:1010F0002946204600F054F93FE12078800601D4CB
:101100000D2500E0E569C7F30A560D2D49DA0021E7
:101110004FEA175B08464FF00000002F00F4400034
:1011200007DA00EB80004FF4400100EBD07001EAD9
:1011300060008115012901DD4FF0FF3100224FEAE7
:10114000850CBCF1180F06D31346ACF118004FF014
:101150008052C24003E04FF4801323FA0CF30CF1E9
:101160000C0CBCF1200F04D3ACF1200C09FA0CF0EC
:1011700001E007FA0CF000294FF0004801DD18B932
:101180000FE00ED140450CD319EB02095F4121B9A4
:10119000404502D19F4329EA0209BBEB175F00D00B
:1011A000761C2088000502D57B48784402E07A4806
:1011B0007844193808AA302302F80A30037C0AF16F
:1011C0000101002E0AF1020A53546A4602DC4FF074
:1011D000300101E04FF031014FF001088DF80010AF
:1011E00002D0A6F2FF3603E059EA470100D06B4E69
:1011F000002D02DC2178090704D54FF002082E21CA
:101200008DF80110C44600210BE0C7F303433F01F2
:10121000C35C491C6D1E02F80830052908F101085D
:1012200001DA002DF1DC00210CE000EB1973491C00
:101230001B786D1E082902F808304FEA091908F1D9
:10124000010801DA002DF0DC21688B0602D516E0DA
:10125000A8F10108E04505DD02EB080313F8013CA5
:10126000302BF5D0B8F1000F09DD02EB080313F8BD
:10127000013C2E2B03D1090701D4A8F10108002D50
:1012800005DD3E2102F808106D1E08F10108407CC2
:10129000002E02F8080008F1010804DA2D20764239
:1012A00002F8080002E02B2002F808000A214FF49F
:1012B0007A70864208F101080BDB96FBF0F33033BD
:1012C00002F8083096FBF0F308F1010800FB136602
:1012D00001E0642E0CDB642096FBF0F3303302F85F
:1012E000083096FBF0F308F1010800FB136601E0FB
:1012F0000A2E06DB96FBF1F0303002F8080008F108
:10130000010896FBF1F001FB1060303002F8080094
:10131000A16908F1010808EB050202EB0A00081AAE
:10132000A0612078C00602D42046FFF704FA216AA3
:1013300008AE01EB0A00206204E0D4E9012116F8AE
:10134000010B9047BAF1010AF7D22078C00602D506
:101350002046FFF7F0F96E4609E016F8010B3E282B
:101360000FD0D4E901219047206A401C2062B8F1D7
:101370000108F2D22046FFF7F4F909B00320BDE8D6
:10138000F08F206A2844206203E0D4E90121302054
:1013900090476D1EEBD3F8E7194D000002FCFFFFEC
:1013A0002DE9F0411F46044603260168072A01F48F
:1013B000006004DB08B116A505E016A503E008B13E
:1013C00015A500E015A521F010002060A069C01E41
:1013D000A0610FB1401EA0612046FFF7ACF94FB1EC
:1013E000D4E9012138469047206A401C2062C01C85
:1013F000206206E0206AFAE7D4E9012115F8010B22
:101400009047761EF8D22046FFF7ABF9BDE8F08191
:101410004E414E006E616E00494E4600696E660098
:1014200010B5436913B1AFF3008001E0FFF77EFC14
:10143000012010BD128800F1240182840022C284A0
:101440000122EDE711684FF0FF32E9E72DE9F0479F
:10145000814616468AB0354878440DC88DE80D009F
:1014600032487844801C03AC0DC884E80D0041F676
:101470009B300844372190FBF1F290FBF1F5A5F188
:10148000800501FB12041B3C02D56442012000E0F0
:101490000020DFF898A080460027FA44AAF1BE0A8F
:1014A0000EE0E0070AD03246684607EB4701012309
:1014B0000AEB810100F06DFB8DE8070064107F1CD2
:1014C000002CEED1194F7F44AE3F19E0E80715D04C
:1014D00007EB04100DF1180A90E80E008AE80E00E0
:1014E000C068F04201D1981908903246012306A93C
:1014F00003A800F04EFB03AB83E807006D10641CEB
:10150000002DE3D14FF0010332466946B8F1000FD8
:1015100003A802D000F028FB01E000F03AFBC9E983
:101520000001C9F808200AB0BDE8F087FC4A0000B5
:10153000007B00F08000704770B516460C460546EB
:1015400000F044F8036893F80101012806D0FF2C4D
:101550000FD8185D68B101202C7070BDD3F8070159
:101560003246214603F2071303442846BDE8704083
:1015700018474FF0FF3070BD004870479031002091
:101580007546FFF7F9FFAE4605006946534620F061
:101590000700854618B020B5FEF7C8FEBDE820401C
:1015A0004FF000064FF000074FF000084FF0000B1F
:1015B00021F00701AC46ACE8C009ACE8C009ACE8D2
:1015C000C009ACE8C0098D467047000010B5FFF7B0
:1015D0001FFD001D10BD00BF613E000010B5044698
:1015E000AFF300802046BDE81040FEF73EBE00008D
:1015F0004FF0013C50F8042B51F8043B9A4221D1A2
:10160000A2EB0C03934313EACC1317D150F8042B2D
:1016100051F8043B9A4215D1A2EB0C03934313EA11
:10162000CC130BD150F8042B51F8043B9A4209D14A
:10163000A2EB0C03934313EACC13DBD04FF0000072
:10164000704700BFD01A01BAB1FA81F101F0180158
:1016500022FA01F0CB40C1F12001DBB2C0B2C01AC6
:101660002CFA01F3D11A914311EAC311E6D1704764
:101670005FEA400C08BF91F0000F4FEA8C234FEA5D
:10168000C12243EA51514FEA1C5018BF00F5F04007
:101690004FEA300018BF41F000415FEA6C5C00F097
:1016A0002980BCF1FF3F08BF40F080407047130C19
:1016B00006BF12044FF0100C4FF0000C130E04BFC5
:1016C00012020CF1080C130F04BF12010CF1040CF0
:1016D000930F04BF92000CF1020CD30F04BF520011
:1016E0000CF1010C11464FF00002A0F11F00A0EB1D
:1016F0000C00704711F0004F08BF704731F00041F7
:101700003FF4D5AF0B0C06BF09044FF0100C4FF09F
:10171000000C0B0E04BF09020CF1080C0B0F04BFE8
:1017200009010CF1040C8B0F04BF89000CF1020CB1
:10173000CB0F04BF49000CF1010CCCF12003A0EB4E
:101740000C0022FA03F302FA0CF241EA030100F161
:101750000100704720F07F4C80EA030023F07F47B0
:10176000ACEB070303F57C5300F0004003F1FF03EB
:101770002DE980494FEA154B09B44FEA144325EA95
:101780000B4E24EA03480FF2042606EB1327490800
:101790003E785FEA320203FB0667C7F5000707FBE6
:1017A00006F64FEA54374FEAD64606F1020607FB23
:1017B000066CCCF1005C4FEA1C472CEA074C07FB97
:1017C00006F40CFB06F504EB15464FEA961634BFFB
:1017D00000204FF000404FEAD13706FB07FC4FEAEC
:1017E0001C4C0CFB0BF7D21B03FB0CF761EB070146
:1017F0000CFB0EF7B0EB074072EB17420CFB08F73F
:1018000034BFA2EB0742B2EB074261EB17414FEA4C
:101810000C444FEA910706FB07FC4FEA1C4C0CFBFB
:101820000BF7B0EBC74072EB573203FB0CF734BF3A
:10183000A2EBC742B2EBC74261EB57310CFB0EF78C
:10184000B0EBC70072EB57720CFB08F734BFA2EB8A
:10185000C702B2EBC70261EB5771039F4FEA816188
:1018600041EA921104EBCC044FEAD1374FEA82628D
:1018700006FB07FC42EA90124FEA80604FEA1C4CDC
:101880000CFB0BF7D21B03FB0CF761EB07010CFB06
:101890000EF7B0EB074072EB17420CFB08F734BFB2
:1018A000A2EB0742B2EB074261EB17414FEA8C55BE
:1018B0004FEA910704EB9C2406FB07FC4FEA1C4C03
:1018C0000CFB0BF7B0EBC74072EB573203FB0CF786
:1018D00034BFA2EBC742B2EBC74261EB57310CFBFE
:1018E0000EF7B0EBC70072EB57720CFB08F734BF72
:1018F000A2EBC702B2EBC70261EB577115EB4C25A7
:101900004FEA816141EA92114FEA82624FEAD13790
:1019100042EA901206FB07FC44F100044FEA8060A3
:101920004FEA1C4C0CFB0BF7D21B03FB0CF761EBD3
:1019300007010CFB0EF7B0EB074072EB17420CFBF4
:1019400008F734BFA2EB0742B2EB074261EB174145
:1019500015EB1C154FEA813141EA92414FEA823280
:1019600042EA90424FEA80304FEA0C7644F100049C
:1019700048EA03434EEA0B484FF0000EB2EB080C66
:1019800071EB030724BF624639464EEB0E0E4FF053
:10199000000B0018524149414BEB0B0BB2EB080C0A
:1019A00071EB03077BF1000B24BF624639464EEB17
:1019B0000E0E4FF0000B0018524149414BEB0B0B40
:1019C000B2EB080C71EB03077BF1000B24BF6246FE
:1019D00039464EEB0E0E51EA020718BF46F00106DB
:1019E00016EB0E7655F1000254F1000103D5BDE867
:1019F0008901BDE80088BDE88901BDE80048B61945
:101A0000524141EB0101A3F10103704780807F7EC9
:101A10007D7C7B7A79787776767574737271717064
:101A20006F6E6E6D6C6C6B6A6A6968686766666516
:101A30006464636362616160605F5F5E5E5D5D5CA4
:101A40005C5B5B5A5A595958585757565655555515
:101A50005454535352525251515050504F4F4F4E75
:101A60004E4D4D4D4C4C4C4B4B4B4A4A4A494949C3
:101A70004848484747474746464645454544444405
:101A8000444343434342424242414141002B9C462E
:101A900030D477002BD01CB54FEA370703B44FF092
:101AA00010004FF01001BAF1000F06D0BCF1000F8A
:101AB000DCBF40F0080040F008014FF000000FBC10
:101AC000BDE810400BF1010BBBF1010F08BF5FEA4D
:101AD000170722BF12F1010211F101014FF000417D
:101AE00043F1000300F0004043EA00007047F9D3DF
:101AF0005708D0E746EA064613F1400F4FEA16466C
:101B00001FDD13F1200FDFBF16430A4600212033EB
:101B10005B42BED0C3F1200746EA064602FA07F749
:101B20004FEA164646EA0706C3F1200722FA03F2F7
:101B300001FA07F721FA03F14FF0000342EA070226
:101B4000A7E746EA020646EA06464FEA164646EA8E
:101B50000106BCBF46EA0646360C4FF000034FF0C4
:101B600000024FF0000194E72DE9804C9A4693461D
:101B700070B491E8380007C831EA400C48BF34EA35
:101B8000430C03D5FFF7E6FDFFF780FFF0BCBDE88F
:101B9000008C2DE9804C9A46934670B491E8380049
:101BA00007C810F0804F08BF13F0804F03D100F03A
:101BB00005F8FFF76BFFF0BCBDE8008C20F07F4715
:101BC00080EA030023F07F4C07EB0C03A3F57C5362
:101BD00000F00040A3F1FE0392F0000F00F0B3808C
:101BE00095F0000F00F077802DE901494FEA114090
:101BF0004FEA144621EA004800FB06FC24EA0647A7
:101C000008FB06F607FB08F800FB07F718EB064889
:101C10004CEB164C4FEA124B18EB07484FEA1546AF
:101C20004CEB174022EA0B4E0BFB06FC25EA06475D
:101C30000EFB06F607FB0EFE0BFB07F71EEB064E30
:101C40004CEB164C4FF000061EEB074E4CEB174BBF
:101C500018EB0B0840F1000018EB0E0B58EB0008D6
:101C600040F100008F1A4FF000013CBFC943661BD2
:101C700014BFB5EB040C00213CBFC943F61B4FEA6F
:101C800017444EEA8E0E27EA04454FEA1C4704FB30
:101C900007622CEA074C05FB07F70CFB05F604FB73
:101CA0000CFC16EB074642EB174216EB0C4642EBD8
:101CB0001C421BEB060658EB0202414146EA9E0617
:101CC00001D5BDE80189B619524141EB0101A3F1EB
:101CD0000103BDE801894FEA14454FEA114724EAA0
:101CE000054621EA074C05FB07F406FB07F70CFB4A
:101CF00006F105FB0CFC11EB074144EB17444FEADE
:101D0000124711EB0C4144EB1C4422EA074C05FB43
:101D100007F206FB07F70CFB06F605FB0CFC16EBBF
:101D2000074642EB174216EB0C4642EB1C456A187D
:101D300054F1000148BF7047B619524141EB01010F
:101D4000A3F10103704795F0000F37D04FEA11421D
:101D50004FEA144721EA024624EA074C02FB07F146
:101D600006FB07F70CFB06F402FB0CFC14EB074424
:101D700041EB17414FEA154714EB0C4441EB1C4172
:101D800025EA074C02FB07F506FB07F70CFB06F6F6
:101D900002FB0CFC16EB074645EB174516EB0C4611
:101DA00045EB1C42121951F1000148BF7047B619AA
:101DB000524141EB0101A3F1010370474FEA144581
:101DC0004FEA114724EA054621EA074C05FB07F1D3
:101DD00006FB07F70CFB06F24FF0000605FB0CFCB8
:101DE00012EB074241EB174112EB0C4251EB1C4145
:101DF00048BF7047921841EB0101A3F101037047FE
:101E000021B1826842F00102826003E0826822F020
:101E1000010282607047000010B5044612488442F7
:101E200008D10121401500F06DFB0021601500F084
:101E300069FB17E00D48844208D10121001500F02C
:101E400061FB0021201500F05DFB0BE00848844297
:101E500008D10121C80300F055FB00214FF40040D8
:101E600000F050FB10BD000000240140002801409C
:101E7000003C014000B587B00121042000F032FB96
:101E80000121480200F02EFB0220ADF804000020E2
:101E90008DF8070001A9174800F0F5F91648FFF77B
:101EA000BBFF4FF4004000F0F1FA012000F0C8F849
:101EB000002002908DF80C008DF80D004FF460208A
:101EC00004900020059001208DF8180002A90A480E
:101ED00000F02CF801210848FFF792FF064800F0B7
:101EE000A9F800BF044800F009F80028FAD107B0AB
:101EF00000BD000000080140002401400146002010
:101F00008A6802F004020AB1012000E00020704754
:101F10000146C86C80B270470246002013680B402F
:101F20000BB1012000E000207047000030B50246F0
:101F30000020002350680F4C20400D790C6844EAC3
:101F400005242043506090680B4C2040D1E9025496
:101F50002C434D7944EA450420439060D06A20F434
:101F600070000C7C641EE4B2234340EA0350D0624C
:101F700030BD0000FFFEF0FFFDF7F1FFF0B50446B5
:101F80000D4600200021092D11DDE068A5F10A06AB
:101F900006EB4607072606FA07F18843A5F10A066D
:101FA00006EB460603FA06F10843E0600CE0206900
:101FB00005EB4507072606FA07F1884305EB4506BA
:101FC00003FA06F108432061072A0FDA606B561EF8
:101FD00006EB86071F2606FA07F18843561E06EB16
:101FE000860605FA06F10843606322E00D2A0FDA3F
:101FF000206BD61F06EB86071F2606FA07F18843DB
:10200000D61F06EB860605FA06F10843206310E0AA
:10201000E06AA2F10D0606EB86071F2606FA07F115
:102020008843A2F10D0606EB860605FA06F1084381
:10203000E062F0BD816841F00401816070470000FA
:1020400030B10749096841F40001054A116005E013
:102050000349096821F40001014A1160704700003A
:102060000824014017E00CA0FEF786F900F096F96D
:10207000044603F0F7F90F4908600846006803F0CA
:1020800065FE044622460B460BA0FEF775F94FF499
:10209000FA7002F017FAE6E74144435F7461736B2C
:1020A000D5FDD4DAD4CBD0D0A3A1A3A1A3A10D0A8E
:1020B000000000002000002074656D70657261747E
:1020C000757265203D2025660D0A000000BFFEE701
:1020D000052424E012A0FEF74FF904E000F0DEFF33
:1020E000C82000F003FF201EA4F10104F6D100F087
:1020F00089FF0A2190FBF1F5284603F053FE1049B1
:1021000008601048006803F021FE05462A460B4689
:102110000DA0FEF731F94FF4FA7002F0D3F9D9E7C8
:10212000445331384232305F7461736BD5FDD4DA79
:10213000D4CBD0D0A3A1A3A1A3A10D0A000000007D
:10214000240000202000002074656D7065726174A9
:1021500075726532203D2025660D0A000DE007A04E
:10216000FEF70AF964230CA20C4801680CA000F0E9
:102170001DF84FF4FA7002F0A5F9F0E744617461BC
:10218000546F494F54D5FDD4DAD4CBD0D0A3A1A3FA
:10219000A1A3A10D0A000000000000002000002003
:1021A00074656D7065726174757265002DE9F04734
:1021B0000646894614461D464FF0000A00201F4976
:1021C00008801F4801F01AFF484603F0BFFD07468C
:1021D0003A460B4631461BA001F010FF1CA001F04F
:1021E0000DFF484603F0B2FD07463A460B4631461E
:1021F0002048FEF7C1F8ECB1E5B113E00A2000F089
:1022000075FE0E48008800F4004058B1204600F0EA
:1022100047FD20B1214618A0FEF7AEF806E00020E9
:1022200006490880681E80B2051EE7D100BF0DB9BF
:102230004FF0010A5046BDE8F08700001E00002064
:10224000846100087B5C2225735C223A25660000CD
:102250007D5C2C5C2276657273696F6E5C223A5CE1
:1022600022312E302E305C227D222C312C300D0A72
:1022700000000000705F000861636B3A25730D0A6F
:102280000000000070472DE9F041024600250026BD
:10229000002000230024002791F803C00CF00F0554
:1022A00091F803C00CF0100CBCF1000F03D091F8B2
:1022B00002C04CEA050591F800C0BCF1000F31D016
:1022C000146800202BE04FF0010C0CFA00F3B1F879
:1022D00000C00CEA03069E4220D183004FF00F0C91
:1022E0000CFA03F7BC4305FA03FC4CEA040491F82A
:1022F00003C0BCF1280F06D14FF0010C0CFA00FC12
:10230000C2F814C00AE091F803C0BCF1480F05D12F
:102310004FF0010C0CFA00FCC2F810C0401C082859
:10232000D1D31460B1F800C0BCF1FF0F34DD5468A4
:1023300000202EE000F1080C4FF0010808FA0CF321
:10234000B1F800C00CEA03069E4221D183004FF091
:102350000F0C0CFA03F7BC4305FA03FC4CEA040427
:1023600091F803C0BCF1280F05D100F1080C08FA60
:102370000CF8C2F8148091F803C0BCF1480F07D1E3
:1023800000F1080C4FF0010808FA0CF8C2F81080B0
:10239000401C0828CED35460BDE8F0812DE9F05FE1
:1023A000102001F0B1FD04464FF066320D4B03F0F2
:1023B000E5FA82468B4652465B460B480B4903F0D2
:1023C000DBFB06460A4A0B4B03F026F904460022C3
:1023D000094B03F079F88046894640464946BDE8F6
:1023E000F09F000066664A3FE17A14AE47E1F63F8F
:1023F00022FDF675E09C713F0000394000BFFEE70A
:1024000000BFFEE77047000070B5002100230F22D7
:10241000C47804B3154C246804F4E064C4F5E064A3
:10242000210AC1F10403CA40447804FA03F1847814
:102430001440214309010E4C0678A155047804F09C
:102440001F050124AC4005786D11AD0005F1E025B4
:10245000C5F8004109E0047804F01F050124AC40F0
:10246000044D0678761145F8264070BD0CED00E06D
:1024700000E400E080E100E002490143024A11600B
:10248000704700000000FA050CED00E00146002056
:10249000034A506820F440400843506070470000F1
:1024A0000010024029B1064AD2690243044BDA61A6
:1024B00004E0034AD2698243014BDA6170470000AD
:1024C0000010024029B1064A12690243044B1A6106
:1024D00004E0034A12698243014B1A61704700000D
:1024E0000010024029B1064A92690243044B9A61E6
:1024F00004E0034A92698243014B9A6170470000ED
:102500000010024029B1064AD2680243044BDA6047
:1025100004E0034AD2688243014BDA60704700004E
:102520000010024030B500210022002400232D4D70
:102530006D6805F00C0121B1042905D0082923D1CB
:1025400005E0294D056022E0274D05601FE0254D7F
:102550006D6805F47012234D6D6805F48034022512
:1025600005EB92421CB9214D554305600BE01D4D12
:102570006D6805F400351DB11C4D5543056002E042
:10258000194D5543056002E0174D056000BF00BFBF
:10259000144D6D6805F0F0010909154D6B5C056877
:1025A000DD4045600F4D6D6805F4E061090A104D8E
:1025B0006B5C4568DD4085600A4D6D6805F46051CF
:1025C000C90A0B4D6B5C4568DD40C560054D6D6803
:1025D00005F44041890B074D6B5CC568B5FBF3F50D
:1025E000056130BD0010024000127A0000093D0074
:1025F000B8000020C800002010B500F001F810BDA0
:102600000CB50020019000903348006840F4803001
:102610003149086000BF3048006800F40030009085
:102620000198401C0190009818B90198B0F5A06F6E
:10263000F1D12948006800F4003010B10120009069
:1026400001E0002000900098012843D12348006851
:1026500040F01000214908600846006820F003009F
:1026600008600846006840F0020008601A484068A8
:10267000194948600846406848600846406840F488
:10268000806048600846406820F47C104860084636
:10269000406840F4E81048600846006840F08070E8
:1026A000086000BF0C48006800F000700028F9D0F6
:1026B0000948406820F00300074948600846406820
:1026C00040F00200486000BF0348406800F00C0082
:1026D0000828F9D10CBD0000001002400020024083
:1026E000042808D14FF0E021096941F004014FF0BE
:1026F000E022116107E04FF0E021096921F00401B7
:102700004FF0E022116170477047000010B5134888
:10271000006840F00100114908600846406810490F
:1027200008400E494860084600680E4908400B49B9
:1027300008600846006820F4802008600846406869
:1027400020F4FE0048604FF41F008860FFF754FF3C
:102750004FF000600449086010BD00000010024006
:102760000000FFF8FFFFF6FE08ED00E010B50121C4
:10277000094800F060F868B10848008840F400405B
:10278000064908800121044800F03DF80021024874
:1027900000F03CF810BD0000001400401E000020B6
:1027A0007FB505460C4601212020FFF77BFEADF8E2
:1027B0000450ADF800400020ADF80600ADF802006E
:1027C00069460E4800F054F8012211460B4800F00B
:1027D00043F80121094800F019F837208DF80C0062
:1027E00000208DF80D0002208DF80E0001208DF8DC
:1027F0000F0003A8FFF708FE7FBD00000014004093
:10280000CA4302827047CA430282704721B10288DC
:1028100042F00102028004E002884FF6FE731A4083
:102820000280704702460020138A0B400BB1012042
:1028300000E00020704730B502460020002300244D
:10284000158A05EA0103958905EA010413B10CB163
:10285000012000E0002030BD1AB183890B43838141
:1028600002E083898B438381704781847047000035
:10287000002202881D4B98420ED01D4B98420BD06F
:10288000B0F1804F08D01B4B984205D01A4B9842AC
:1028900002D01A4B984204D14FF68F731A404B88DE
:1028A0001A43174B984207D0164B984204D04FF664
:1028B000FF431A40CB881A4302808B8883850B889C
:1028C00003850A4B98420BD0094B984208D00E4B17
:1028D000984205D00D4B984202D00D4B984201D141
:1028E0000B7A03860123838270470000002C01408D
:1028F000003401400004004000080040000C00408B
:10290000001000400014004000400140004401401D
:102910000048014010B540F225511D4800F0DDF897
:1029200010B31B4800F094F9C4B21A48008800F4B0
:102930000040C8B91748008800F4804060B10A2CF4
:1029400003D000201349088020E01248008840F49A
:1029500000401049088019E00D2C06D10D48008870
:1029600040F480400B49088010E00A480088C0F31A
:102970000D0009490C5407480088401C054908808F
:1029800008460088C72801DD0020088010BD00002F
:10299000003801401C000020CC00002010B540F29F
:1029A0002551164800F099F8F8B1144800F050F994
:1029B000C4B21348008800F40040B0B91048008841
:1029C000B0F5167F12DA00210E48FFF74EFF0C48D3
:1029D000008818B901210B48FFF718FF084908883B
:1029E000411C074A118008490C5405E0044800883E
:1029F00040F400400249088010BD0000004800403B
:102A00001E000020001400409401002021B18289A2
:102A100042F40052828104E082894DF6FF731A402D
:102A20008281704710B504462048844209D10121B3
:102A30008803FFF767FD00214FF48040FFF762FD38
:102A400032E01B48844209D101214804FFF73AFDD6
:102A500000214FF40030FFF735FD25E01548844292
:102A600009D101218804FFF72DFD00214FF48020BA
:102A7000FFF728FD18E01048844209D10121C8045D
:102A8000FFF720FD00214FF40020FFF71BFD0BE0B6
:102A90000A48844208D101210805FFF713FD0021EF
:102AA0004FF48010FFF70EFD10BD0000003801400C
:102AB0000044004000480040004C004000500040EE
:102AC00002460020B1F5007F00D100BF13880B4003
:102AD0000BB1012000E00020704770B502460024D1
:102AE00000230025002040F66A16B14200D100BF45
:102AF000C1F3421501F01F03012606FA03F3012D6D
:102B000002D19689334006E0022D02D1168A334065
:102B100001E0968A33400C12012606FA04F4168866
:102B2000344013B10CB1012000E0002070BDF0B5BD
:102B30000346002400260025002040F66A17B9420B
:102B400000D100BF1846C1F3421401F01F0601274F
:102B500007FA06F5012C01D10C3004E0022C01D15A
:102B6000103000E014301AB107682F43076002E00C
:102B70000768AF430760F0BD2DE9F04786B0054612
:102B80000E460024A24600BFA1460027B08900B12E
:102B900000BF2F462C8A4CF6FF700440F088044397
:102BA0002C82AC894EF6F3100440B088318908437A
:102BB000718908430443AC81AC8A4FF6FF4004405E
:102BC000B0890443AC8201A8FFF7ACFC1F488742E0
:102BD00002D1DDF810A001E0DDF80CA0A88900F416
:102BE000004040B10AEBCA0000EB0A10316849000E
:102BF000B0FBF1F807E00AEBCA0000EB0A103168FD
:102C00008900B0FBF1F86420B8FBF0F00401200962
:102C1000642101FB1089A88900F4004040B13220F2
:102C200000EBC900B0FBF1F000F00700044308E03E
:102C3000322000EB09106421B0FBF1F000F00F002E
:102C400004432C8106B0BDE8F08700000038014045
:102C500001468888C0F308007047C1F308028280EB
:102C6000704700BFFEE7490050EAC12018BF0420AA
:102C70004A0D18BF40F0010040F2FF72B2EB515F05
:102C800008BF40F00200012808BF05207047303817
:102C90000A2801D2012070470020704700BF70470A
:102CA00070B5044600250948008800F4004058B17A
:102CB000002006490988C1F30E01054A50542146F7
:102CC0001046FDF78FFC0546284670BD1E0000200B
:102CD000940100202DE9F04106460D4614460027D8
:102CE000002013490880314612A001F087F9E5B1B0
:102CF000DCB113E00A2000F0F9F80D48008800F478
:102D0000004058B12846FFF7CBFF20B129460BA061
:102D1000FDF732FB06E0002005490880601E80B206
:102D2000041EE7D100BF04B901273846BDE8F08191
:102D30001E00002025730D0A0000000061636B3A3D
:102D400025730D0A0000000010B5142222A123A053
:102D5000FFF7C0FF4FF47A7000F0C8F84FF47A70B4
:102D600000F0C4F84FF47A7000F0C0F84FF47A70B5
:102D700000F0BCF8322218A11BA0FFF7ABFF00BF88
:102D8000322215A121A0FFF7A5FF0028F8D127A026
:102D9000FDF7F2FA32222BA12B48FFF79BFF2BA065
:102DA000FDF7EAFA322227A12D48FFF793FF2DA065
:102DB000FDF7E2FA322223A12E48FFF78BFF2EA067
:102DC000FDF7DAFA32221FA13148FFF783FF31A065
:102DD000FDF7D2FA002010BD4F4B000041542B43A9
:102DE000574D4F44453D310041542B434950534EBC
:102DF00054504346473D312C382C226E7470312E8E
:102E0000616C6979756E2E636F6D220041542B439E
:102E1000574A41503D225869616F6D693134222C07
:102E20002231323334393837362200007769666907
:102E3000CDF8C2E7C1ACBDD3B3C9B9A62E2E2E2E94
:102E40000D0A00000000000034600008D3C3BBA7D7
:102E5000C9E8B1B8C1ACBDD32E2E2E0D0A000000BA
:102E60009C600008C1ACBDD3BFCDBBA7B6CB2E2E96
:102E70002E0D0A003C610008C1ACBDD3B0A2C0EF6A
:102E8000D4C6B7FECEF1C6F72E2E2E0D0A000000D6
:102E9000F0600008BFCDBBA7B6CBB6A9D4C4CFFBAA
:102EA000CFA22E2E2E0D0A0010B56FF00400FFF7F2
:102EB00017FC0A4800680A49B0FBF1F0094908709C
:102EC0000846007800EB4001C1EBC0104FF6FF71DF
:102ED00001EAC0000449088010BD00000000002085
:102EE00000127A0014000020160000203EB50446AF
:102EF00001211020FFF7D6FA40F2E730ADF80400C8
:102F00004720ADF800000020ADF80600ADF8020043
:102F100069461248FFF7ACFC01211048FFF770FC2E
:102F200001210E48FFF772FC00250CE000BF0121D3
:102F30000A48FFF777FC0028F9D001210748FFF77E
:102F40005FFC681C85B2A542F0DB00210348FFF757
:102F50005DFC00211020FFF7A5FA3EBD00100040E7
:102F60000146114A12784A434FF0E0235A61002289
:102F70009A611A46126942F001021A6100BF4FF0CD
:102F8000E022106900F001021AB100F48032002A38
:102F9000F5D04FF0E022126922F001024FF0E02359
:102FA0001A6100229A6170471400002070B5002455
:102FB000002504E0601CC4B20120FFF7D1FF4FF4EC
:102FC00000610F4801F006F808B1C82CF2DBC82CEC
:102FD00001DB012511E0002404E0601CC4B20120E3
:102FE000FFF7BEFF4FF40061054800F0F3FF08B99A
:102FF000F02CF2DBF02C00DB0125284670BD000030
:10300000002001402DE9F05F4FF0010B00F0B0F817
:1030100000F098F8FFF7CAFFCC2000F0B5F8BE200A
:1030200000F0B2F800F07CF8824600F079F88146B2
:10303000B9F1070F09DD6FEA090000F0FF096FEA37
:103040000A0000F0FF0A4FF0000B4C46200204B2C9
:1030500004EB0A0004B2BBF1000F0ED1601C02F0B9
:1030600062FC074600220C4B02F088FC054602F089
:103070002BFC04B2604204B20BE0204602F053FC89
:1030800005460022044B02F079FC074602F01CFCC6
:1030900004B22046BDE8F09F0000E43F08B500BF41
:1030A0000C48806940F480700A49886100BFC814E8
:1030B000ADF8000014208DF8030003208DF8020005
:1030C00069460548FFF7DFF800F03CF8FFF76EFFB0
:1030D00008BD0000001002400020014010B500248F
:1030E00000224FF400610D4800F07CFF0220FFF742
:1030F00037FF0122D102094800F074FF0C20FFF7CE
:103100002FFF4FF40061054800F064FF00B1012477
:103110003220FFF725FF204610BD000000200140AF
:1031200070B50026002408E0FFF7D8FF054605FA31
:1031300004F03043C6B2601CC4B2082CF4DB304645
:1031400070BD000010B500224FF40061074800F088
:1031500049FF40F2EE20FFF703FF0122D1020348AE
:1031600000F040FF0F20FFF7FBFE10BD00200140E4
:1031700010B5FFF7E7FFFFF719FFCC2000F004F8C8
:10318000442000F001F810BD70B50446012528E088
:1031900004F0010088B100224FF40061124800F0F1
:1031A00021FF0220FFF7DCFE0122D1020E4800F0D1
:1031B00019FF3C20FFF7D4FE10E000224FF400611D
:1031C000094800F00FFF3C20FFF7CAFE0122D102A0
:1031D000054800F007FF0220FFF7C2FE6410681CDC
:1031E000C5B2082DD4DD70BD0020014000BF054AE6
:1031F000128802F04002002AF9D0C2B2014B1B1D16
:103200001A807047003801401CB50848012100238E
:103210000A02CDE9001006A1084801F0A7FD034805
:10322000006801F089F901F08BFA1CBD280000202C
:1032300073746172745F7461736B0000413F0008C6
:1032400010B5FFF731FE4FF4A060FFF715F94FF40A
:10325000E13000F0FBFEFEF70DFE4FF4E13000F030
:1032600045FFFFF771FD4FF47A70FFF73FFE4FF413
:103270007A70FFF73BFE4FF47A70FFF737FEFFF7E7
:10328000C3FF002010BD00002DE9F04105460E46A9
:103290002948076800202949096881F8590027480A
:1032A0000068001D00F08AFF50B92448006890F8BB
:1032B0002C10012088402249096881432048016080
:1032C000681CD8B9D6B11F4948681C49096888608C
:1032D0001A4982680968CA6018490968091D826824
:1032E000516016490968091D8160164A1349096829
:1032F0004A6111460968491C11601AE07C190F489F
:1033000000684460BC4207D20C480168091D0E48A1
:10331000006800F077FF0CE008480168091D0B48C1
:10332000006800F06FFF0A480068844201D2084834
:103330000460BDE8F08100007800002064000020F7
:103340007C000020543100206C0000206800002028
:103350009400002010B5044600F07AFF3148006860
:10336000401C304908603048006840B92E4804606D
:103370000846006801280DD100F00EFA0AE02B483B
:10338000006838B928480068C06AE16A884201D8F4
:103390002548046026480068401C25490860084606
:1033A0000068606494F82C10012088402149096865
:1033B000084320490860E16A01EB81011E4A02EBE3
:1033C00081014868A0608268E260211D82685160C6
:1033D0008160E16A01EB8101174A02EB81026261BF
:1033E000E16A01EB8101144A52F82110491CE26A9A
:1033F00002EB8202104B43F8221000F061FF0B48F1
:10340000006868B108480068C06AE16A884207D26B
:103410004FF0805009490860BFF34F8FBFF36F8FA3
:1034200010BD000074000020640000208000002017
:10343000900000207C000020842E002004ED00E09D
:1034400010B500F005FF10480068D0B90F4800F033
:10345000C9FE0F4800F0C6FE0C480E4908600C4833
:103460000D49086000221021052001F0B3FA064939
:1034700008600846006820B108A10348006800F011
:10348000BDFF00F01DFF10BDAC0000206831002022
:103490007C310020A4000020A8000020546D72514F
:1034A0000000000010B516E000F0D2FE0C48C06825
:1034B000C468201D00F082FE0A480068401E0949C9
:1034C000086009480068401E0749086000F0F8FEDF
:1034D000204600F05FF8044800680028E4D110BDE1
:1034E00040310020740000207000002070B50446B8
:1034F0000D46206C70B1216CE0680144E160D4E9B4
:103500000210884201D32168E1602846226CE168FC
:10351000FDF799F870BD2DE9F04104460F461546B8
:103520004FF00008A66B206C48B9206800282CD109
:10353000A06801F04BFD80460020A06025E07DB929
:103540003946226C6068FDF77EF8216C606808449B
:103550006060D4E90101884217D32068606014E0FC
:103560003946226CE068FDF76EF8216CE068411A7C
:10357000E1602168E068884203D2216CA068411AAA
:10358000E160022D01D106B1761E701CA063404699
:10359000BDE8F08110B50446206B00F0BDFE20466A
:1035A00000F0BAFE10BD00000146084A1268126819
:1035B0000AB9012200E000220A600A6822B9034A1F
:1035C0001268D268106800E000207047A400002054
:1035D00030B54FF42053174800F007042CB1C01D3C
:1035E00020F00700134C041B1B1B0246124C2260E8
:1035F0000024114D6C60D018083820F007000F4CE3
:10360000206000240D4D2D686C600C4D2D682C60E1
:103610001146441A4C60094C24680C60084D4C68F3
:103620002C60084D4C682C604FF00044064D2C6017
:1036300030BD00004406002038000020400000207B
:1036400048000020440000205400002000BFFFF785
:1036500029FF064800680128F9D94FF08050044935
:103660000860BFF34F8FBFF36F8FF0E7842E002009
:1036700004ED00E02DE9F04106460D461746984658
:10368000069C0DB9246000E02760E66325640121F3
:10369000204601F0DFF984F850800020A064BDE8E6
:1036A000F08100002DE9F05F82460F4690469B4670
:1036B0000A9E0C9C4FEA8801A522206BFDF708F8B2
:1036C000A8F10100216B01EB800929F0070909F03D
:1036D000070008B9012000E0002028B94FF4587213
:1036E00024A129A0FCF748FE87B1002507E0795DF9
:1036F00004F134004155785D00B902E06D1C102DD5
:10370000F5D300BF00214320015502E0002084F8DA
:103710003400202E01D2012000E0002028B940F220
:10372000973214A118A0FCF727FE202E00D31F26E5
:10373000E662E66400202065201D00F060FD04F1D3
:10374000180000F05CFD2461C6F12000A0616462F5
:103750000020606584F8580084F859005A465146A4
:10376000484600F0BFFB20600B9808B10B9804603E
:10377000BDE8F09F2E2E5C6672656552544F535C17
:103780007461736B732E63004572726F723A2025F9
:10379000732C2025640D0A0010B5002407E004EB0B
:1037A00084010F4A02EB810000F01CFD641C202CF8
:1037B000F5D30C4800F016FD0B4800F013FD0B4844
:1037C00000F010FD0A4800F00DFD0A4800F00AFD67
:1037D00004480949086004480849086010BD000011
:1037E000842E002004310020183100202C310020CC
:1037F0004031002054310020680000206C0000207F
:1038000010B50146164800E0006803688B42FBD300
:103810000246436813448B4204D143684C682344F6
:10382000436001460A464B6813440468A34211D121
:103830000C4C03682468A34208D04B680468646891
:1038400023444B6003681B680B6005E0054B1B6855
:103850000B6001E003680B60884200D0016010BD7E
:1038600038000020400000202DE9F04104460D46BC
:1038700016461F464FF0000865602461B5420CD81B
:10388000F01BA169884202D34FF0010811E0211D0D
:103890000948006800F0B6FC0BE0BE4204D2BD420D
:1038A00002D34FF0010804E0211D0448006800F035
:1038B000A9FC4046BDE8F081A8000020A40000203B
:1038C00070B5054600F0C4FCA86B08B9012400E0FF
:1038D000002400F0F5FC204670BD0000F1B5009812
:1038E000846C00262CB940F6D53220A124A0FCF728
:1038F00043FDA06BE16B884201D2012000E0002073
:1039000028B940F6D63219A11DA0FCF735FDA06BF1
:10391000E16B884227D294F945500022694620463F
:10392000FFF7F9FD0646681C60B9606A08B9012016
:1039300000E00020B0B904F1240001F0C7FB88B119
:1039400001260FE07F2D01D0012000E0002028B9E2
:1039500040F6F63205A10AA0FCF70EFD681C40B245
:1039600084F8450000BF3046F8BD00002E2E5C668E
:1039700072656552544F535C71756575652E6300B1
:103980004572726F723A2025732C2025640D0A004F
:1039900070B505460E460E480068C068C468201D14
:1039A00000F00CFC94F8280000F0040028B1324626
:1039B0002946204600F0F8F805E094F8280000F0C9
:1039C000FE0084F828002046216A884770BD000068
:1039D000A400002070B586B08AE0029800280CDAB6
:1039E00003AE2EB940F2063247A14DA0FCF7C4FC4D
:1039F000D6E90020B168904700BF0298002877DB25
:103A0000049C606908B9012000E0002010B9201D65
:103A100000F0D4FB01A800F0F3F8054602980A284C
:103A200064D2DFE800F06305072E365306082F370F
:103A300000BF00BF00BF94F8280040F0010084F8E8
:103A400028000398A269811803462A462046FFF7FA
:103A50000BFFA8B194F8280000F0040038B10398D7
:103A6000A26981182A46204600F09EF805E094F8E5
:103A7000280000F0FE0084F828002046216A8847CC
:103A800035E000BF94F8280000F0FE0084F828001C
:103A90002DE000BF94F8280040F0010084F82800D1
:103AA0000398A061A06908B1012000E0002028B9B6
:103AB00040F2593214A11AA0FCF75EFCA06941192A
:103AC0002B462A462046FFF7CFFE10E094F8280048
:103AD00000F0020018B9204600F01EFC05E094F842
:103AE000280000F0FE0084F8280000E000BF00BFBE
:103AF000002202A90E48006801F022F800287FF495
:103B00006CAF06B070BD00002E2E5C66726565520B
:103B1000544F535C74696D6572732E63000000002E
:103B20004572726F723A2025732C2025640D0A00AD
:103B3000AC000020F8B505460C4600F05BFE684678
:103B400000F05EF80646009820BB44B9B54206D89E
:103B500001F05AFB31462846FFF71AFF1CE03CB142
:103B60000E480068006808B9012000E00020044603
:103B7000A91B22460A48006800F07EFC01F044FBC5
:103B800050B94FF0805007490860BFF34F8FBFF323
:103B90006F8F01E001F038FBF8BD0000A8000020A5
:103BA000AC00002004ED00E070B504460D4616465A
:103BB00004E0A06905442046216A8847A0694119AC
:103BC0002B4632462046FFF74FFE0028F1D170BD4C
:103BD00009480068006808B9012000E0002020B111
:103BE0004FF0FF300549086005E003480068C068F1
:103BF00000680249086070476800002094000020B7
:103C000070B5044601F0F2F80546074800688542A1
:103C100004D200F00BF80120206001E000202060B9
:103C200001480560284670BDB400002070B508E06A
:103C30000D480068C06804684FF0FF312046FFF768
:103C4000A7FE09480068006808B9012000E00020CC
:103C50000028EDD00448056804480068024908605F
:103C60000248056070BD0000A4000020A8000020EC
:103C70000B480068401C08B9012000E0002020B972
:103C8000CE2208A10CA0FCF777FB00BF502080F3E8
:103C90001188BFF34F8FBFF36F8F00BF00BFFEE7E8
:103CA000580000202E2E5C6672656552544F535C9E
:103CB000706F72742E6300004572726F723A202525
:103CC000732C2025640D0A0008B500BF6846FFF775
:103CD0006BFC044620460099FFF72CFFFFF77AFEA5
:103CE000F4E770B5044600F0B3FA94F9455019E0D2
:103CF000A06C30B12046FFF7F1FD88B100F0B2FCB6
:103D00000EE0606A08B9012000E0002038B904F133
:103D1000240001F0DBF918B100F0A4FC00E003E09E
:103D2000681E45B2002DE3DC00BFFF2084F845008B
:103D300000F0C6FA00F08CFA94F9445010E02069C3
:103D400008B9012000E0002048B904F1100001F09A
:103D5000BDF908B100F086FC681E45B200E001E044
:103D6000002DECDC00BFFF2084F8440000F0A8FA2E
:103D700070BD00002DE9F04104464FF0000800F04E
:103D800039FD4848006808B9FFF722FC464800683A
:103D90002040002873D114B304F10800A0421ED9BA
:103DA000083404F00700D8B104F00700C0F108009F
:103DB0002044A04211D904F00700C0F108000444D7
:103DC00004F0070008B9012000E0002040B99C225F
:103DD00036A13CA0FCF7D0FA02E0002400E0002469
:103DE000002C4CD03B480068844248D83A4E3046BC
:103DF000056801E02E462D686868A04202D2286856
:103E00000028F7D127480068854238D0306800F193
:103E10000808286830606868001B102813D92F191B
:103E200007F0070008B9012000E0002020B9CF22E8
:103E30001EA124A0FCF7A0FA6868001B78606C60E3
:103E40003846FFF7DDFC234968680968081A2149EC
:103E500008600846006821490968884203D21D4865
:103E600000681E490860104968680968084368606E
:103E7000002028601A480068401C1949086001F0B9
:103E8000C3F908F0070008B9012000E0002028B9B4
:103E90004FF4887205A10BA0FCF76EFA4046BDE80E
:103EA000F081000040000020540000202E2E5C66AF
:103EB00072656552544F535C686561705F342E6360
:103EC000000000004572726F723A2025732C202585
:103ED000640D0A0044000020380000204800002043
:103EE0004C000020001F4FF080730360001F21F082
:103EF00001030360001F034B036014380260203885
:103F000070470000713C000870B504460723012289
:103F100021460A48FEF732F801210848FDF770FFF4
:103F200000BF02210548FDF7F7FF0028F9D003483C
:103F3000FDF7EEFF054601F00DFD70BD00240140C8
:103F40001CB5044600F084F91148022100238022A8
:103F5000CDE900100FA1124800F008FF114803211D
:103F600000238022CDE900100FA1134800F0FEFECF
:103F70001248042100238022CDE9001010A114482A
:103F800000F0F4FE002000F0D7FA00F099F91CBD13
:103F90002C0000207461736B315F414443000000CA
:103FA00065200008300000207461736B325F445359
:103FB0003138423230000000D120000834000020A7
:103FC0007461736B335F44617461546F494F540083
:103FD0005D21000802469068084008B10120704742
:103FE0000020FCE702F001031BB103690B430361EE
:103FF00003E0036943EA0143036170470FB438B536
:1040000005A800900F48009A0499FCF7A3F9002036
:1040100000900C48FCF7F8FA85B200240DE000BFD0
:1040200040210948FEF74CFD0028F9D00548015D04
:104030000548FEF712FE601C84B2AC42EFDB38BCD0
:104040005DF814FBEC0300200048004010B586B07A
:104050000446012144F20400FEF744FA4FF40070D4
:10406000ADF8140003208DF8160018208DF8170005
:1040700005A91C48FEF707F94FF48060ADF814005D
:1040800004208DF8170005A91648FEF7FCF8252036
:104090008DF8000003208DF801008DF8020001204A
:1040A0008DF803006846FEF7AFF901940020ADF8E3
:1040B0000800ADF80A00ADF80C00ADF810000C20B7
:1040C000ADF80E0001A90848FEF756FD012240F2A6
:1040D00025510548FEF72BFD01210348FEF796FC0C
:1040E00006B010BD000801400038014010B586B090
:1040F000044601210820FEF7F5F901218804FEF7A6
:10410000D1F92A48FEF78EFC4FF48060ADF810001C
:1041100003208DF8120018208DF8130004A92448FC
:10412000FEF7B1F84FF40060ADF8100004208DF8F0
:10413000130004A91E48FEF7A6F800940020ADF86D
:104140000400ADF80600ADF80800ADF80C000C2036
:10415000ADF80A0069461548FEF70EFD0121134827
:10416000FEF754FC012240F225511048FEF7DFFC17
:1041700027208DF8140002208DF8150003208DF8FB
:10418000160001208DF8170005A8FEF73DF941F64D
:104190001F4140F2E730FEF703FB0020054908808D
:1041A00000210548FEF732FB06B010BD0048004074
:1041B000000C01401E0000200014004001460A6966
:1041C000D1E901309860D1E9010358605068884214
:1041D00001D188685060002008611068401E10609E
:1041E0001068704700F1080141604FF0FF318160B5
:1041F00000F10801C16001610021016070470021E8
:104200000161704710B502460B685C1C0CB910695F
:1042100007E002F1080000E04068446824689C421E
:10422000FAD944684C604C68A160886041600A61BA
:104230001468641C146010BD42684A6093688B6007
:10424000936859609160086103685B1C0360704764
:1042500010B500BF502080F31188BFF34F8FBFF31C
:104260006F8F00BF0B480068401C0A490860084671
:10427000006801280DD108480068C0B208B90120C3
:1042800000E0002028B940F2731204A108A0FCF756
:1042900073F810BD5800002004ED00E02E2E5C667F
:1042A00072656552544F535C706F72742E630000D8
:1042B0004572726F723A2025732C2025640D0A0016
:1042C00010B50B48006828B94FF4BD7209A10EA0C3
:1042D000FCF752F806480068401E05490860084689
:1042E000006820B9002080F3118800BF00BF10BD16
:1042F000580000202E2E5C6672656552544F535C48
:10430000706F72742E6300004572726F723A2025CE
:10431000732C2025640D0A0070B506463546002E24
:104320003AD0083D2C461D4960680968084008B12C
:10433000012000E0002028B94FF4927218A11EA0BD
:10434000FCF71AF8206808B9012000E0002028B91D
:1043500040F2251212A118A0FCF70EF80F49606870
:1043600009680840C0B12068B0B90C4960680968A4
:104370008843606000F03EFA1349606809680844A9
:10438000114908602046FFF73BFA10480068401CBE
:104390000E49086000F038FF70BD00005400002096
:1043A0002E2E5C6672656552544F535C6865617071
:1043B0005F342E63000000004572726F723A202550
:1043C000732C2025640D0A004400002050000020BA
:1043D00000204FF0E0210861886107480068C008AC
:1043E0004FF47A71B0FBF1F0401E4FF0E0214861CC
:1043F0000320086170470000000000202DE9F04113
:1044000006460F462EB940F6C82211A115A0FBF7AB
:10441000B3FF0025BFB1002412E0164800EBC40032
:104420004068B04203D1134800EBC4050AE035B937
:10443000104850F8340010B90E4800EBC405641C55
:10444000082CEAD300BF0DB12F606E60BDE8F0818B
:104450002E2E5C6672656552544F535C717565759E
:10446000652E63004572726F723A2025732C2025E9
:10447000640D0A00442E00202DE9F04105460E4649
:1044800017462C46FFF7E4FE94F94400401C10B98F
:10449000002084F8440094F94500401C10B9002025
:1044A00084F84500FFF70CFFA06B28B93A46314667
:1044B00004F1240000F006F92046FFF712FCBDE8E5
:1044C000F081000070B504460025ACB10F480068CB
:1044D00008B9012000E0002028B940F249520CA19F
:1044E00010A0FBF749FF00F085F900212046FEF7F8
:1044F000CBFE00F089FE05463DB94FF080500D49D6
:104500000860BFF34F8FBFF36F8F70BDA000002016
:104510002E2E5C6672656552544F535C7461736BEA
:10452000732E63004572726F723A2025732C20251A
:10453000640D0A0004ED00E070B50546FFF788FE43
:1045400015B92F48006800E028460446201DFFF7F3
:1045500035FE78B9E06A00EB80002A4951F8200066
:1045600040B994F82C1001208840274909688143FC
:1045700025480160A06A18B104F11800FFF71EFE7B
:1045800022480068401C214908601D480068844298
:1045900009D1211D1E48FFF74FFE1E480068401C30
:1045A0001C49086006E01C480068401E1A49086063
:1045B000FFF70EFBFFF784FE11480068844202D02B
:1045C0002046FEF7E7FF15480068C0B10C480068B8
:1045D000844214D11248006808B9012000E000208C
:1045E00028B940F2DC420FA113A0FBF7C5FE4FF043
:1045F000805015490860BFF34F8FBFF36F8F70BDB8
:1046000064000020842E00207C0000209000002008
:104610004031002070000020740000208000002045
:10462000A00000202E2E5C6672656552544F535CCC
:104630007461736B732E63004572726F723A20253A
:10464000732C2025640D0A0004ED00E0034909687D
:104650000160034909684160704700008C00002038
:104660007800002001200149086070478800002080
:1046700070B504460D462CB940F61C4207A10CA0AB
:10468000FBF77AFE0E48016818312046FFF7BAFDA5
:1046900001212846FEF7F8FD70BD00002E2E5C6655
:1046A00072656552544F535C7461736B732E630073
:1046B0004572726F723A2025732C2025640D0A0012
:1046C0006400002070B504460E4615462CB940F62D
:1046D000524211A115A0FBF74FFE60681749096807
:1046E000C8611649826809680A6214490968183164
:1046F0008268516011490968183181600F49096861
:104700008C622168491C21600DB14FF0FF362946AB
:104710003046FEF7B9FD70BD2E2E5C66726565529F
:10472000544F535C7461736B732E63004572726FE8
:10473000723A2025732C2025640D0A0064000020A5
:104740001CB51B4800210B468022CDE9001019A1A1
:104750001A4800F00BFB0446012C02D100F01CFEAD
:104760000446012C15D100BF502080F31188BFF3FF
:104770004F8FBFF36F8F00BF4FF0FF3010490860BD
:1047800001201049086000200F49086000F08EF8F1
:104790000BE0601C08B1012000E0002028B94FF4B4
:1047A00004620AA10EA0FBF7E7FD114800681CBDDA
:1047B0009800002049444C45000000004D36000898
:1047C0009400002080000020780000202E2E5C66DF
:1047D00072656552544F535C7461736B732E630042
:1047E0004572726F723A2025732C2025640D0A00E1
:1047F0009C00002002480068401C01490860704786
:10480000A000002010B51B48006818B101201A490B
:1048100008602DE000201849086018480068B0FAC8
:1048200080F0C0F11F0404EB8400154951F820000A
:1048300008B1012000E0002028B940F6024211A191
:1048400015A0FBF799FD04EB84010D4A02EB8100F2
:1048500041684968416000F1080142688A4202D11A
:104860004168496841604168C9680F4A116000BFEA
:1048700010BD0000A0000020880000207C00002067
:10488000842E00202E2E5C6672656552544F535C58
:104890007461736B732E63004572726F723A2025D8
:1048A000732C2025640D0A00640000201CB53B4CCD
:1048B000204600780190FF202146087008460078C5
:1048C00000909DF8000000F0F0009DF80010884274
:1048D00001D1012000E0002028B940F21F1230A1D0
:1048E00034A0FBF749FD9DF8000000F05000354969
:1048F000087007203449086009E033480068401E0A
:10490000314908609DF800004006000E00909DF8B7
:10491000000000F080008028EFD02B480068C0F134
:104920000700042801D1012000E0002028B940F24E
:1049300033121BA11FA0FBF71FFD23480068C0F125
:104940000700042801D1012000E0002028B94FF41D
:104950009E7213A117A0FBF70FFD1B480068000211
:10496000194908600846008800F4E06008600B49B7
:10497000019808701548006840F4700013490860F9
:104980000846006840F070400860FFF721FD0020F5
:104990000F490860FBF782FC00201CBD00E400E02A
:1049A0002E2E5C6672656552544F535C706F727444
:1049B0002E6300004572726F723A2025732C2025F9
:1049C000640D0A005C0000206000002020ED00E083
:1049D000580000202DE9F84305460E4617460024EE
:1049E000E5B1601EB0FBF5F0B04217D305FB06F051
:1049F00010F1550F12D805FB06F909F15400FFF725
:104A0000B9F904468CB1A04608F154083B46424629
:104A1000314628460094FEF72DFE06E02CB94FF4EF
:104A2000E37203A107A0FBF7A7FC2046BDE8F883CB
:104A30002E2E5C6672656552544F535C71756575B8
:104A4000652E63004572726F723A2025732C202503
:104A5000640D0A002DE9F04105460E4601272C465B
:104A60002CB94FF488722CA130A0FBF785FC002CE8
:104A700042D0E06B00283FD04FF0FF31E06BB1FB3C
:104A8000F0F0216C884237D3FFF7E2FBD4E90F1234
:104A9000206801FB0200A0600020A0632068606025
:104AA000E06B401E226C216800FB0211E160FF20D8
:104AB00084F8440084F845009EB9206908B90120B3
:104AC00000E00020A8B904F1100000F0FFFA80B166
:104AD0004FF0805019490860BFF34F8FBFF36F8FBD
:104AE00007E004F11000FFF77DFB04F12400FFF75D
:104AF00079FBFFF7E5FB00E000270FB1012000E0A4
:104B0000002028B940F2451203A108A0FBF734FCAD
:104B10003846BDE8F08100002E2E5C667265655255
:104B2000544F535C71756575652E63004572726FE5
:104B3000723A2025732C2025640D0A0004ED00E054
:104B40002DE9F74183B005460E464FF000082C468C
:104B50002CB940F251524CA150A0FBF70DFC0EB9FC
:104B6000206C08B9012000E0002028B940F255521D
:104B700045A14AA0FBF700FC00F028F908B9059808
:104B800008B9012000E0002028B940F25A523EA1A5
:104B900042A0FBF7F1FB00BFFFF75AFBA76BF7B191
:104BA00031462046FEF7A2FC781EA063206908B9B2
:104BB000012000E0002060B904F1100000F086FA46
:104BC00038B14FF0805039490860BFF34F8FBFF3C1
:104BD0006F8FFFF775FB012006B0BDE8F0810598E7
:104BE00018B9FFF76DFB0020F6E7B8F1000F04D10C
:104BF00001A8FFF72BFD4FF00108FFF761FBFFF75E
:104C0000F9FDFFF725FB94F94400401C10B9002082
:104C100084F8440094F94500401C10B9002084F841
:104C20004500FFF74DFB05A901A800F041F8F0B9D8
:104C30002046FEF745FEA0B104F124000599FFF7D8
:104C400017FD2046FFF74DF800F0DEFA0028A3D14B
:104C50004FF0805015490860BFF34F8FBFF36F8F3F
:104C60009AE72046FFF73DF800F0CEFA94E7204699
:104C7000FFF737F800F0C8FA2046FEF721FE0028BB
:104C80008AD00020A8E700002E2E5C66726565526F
:104C9000544F535C71756575652E63004572726F74
:104CA000723A2025732C2025640D0A0004ED00E0E3
:104CB00070B506460C462EB940F6FD421FA124A051
:104CC000FBF75AFB2CB940F6FE421CA120A0FBF7D3
:104CD00053FBFFF7BDFA224802687068131A214897
:104CE000006890F8590030B100201E49096881F829
:104CF000590001251EE02068401C08B9002519E074
:104D0000194930680968884206D07068904203D813
:104D10000125002020600DE02068984207D9206816
:104D2000C01A20603046FFF791FC002502E0002009
:104D300020600125FFF7C4FA284670BD2E2E5C6660
:104D400072656552544F535C7461736B732E6300CC
:104D50004572726F723A2025732C2025640D0A006B
:104D600078000020640000208C0000202DE9FF4F17
:104D700085B0804689461746DDE912ABB800FEF7DC
:104D8000F9FF064656B15C20FEF7F4FF04460CB16D
:104D9000266304E03046FFF7BFFA00E000247CB150
:104DA0000020CDE900ABCDE902403A4649464046F5
:104DB000089BFEF777FC2046FEF7CCFA012501E0C0
:104DC0004FF0FF35284609B0BDE8F08F0549096866
:104DD00009B9012005E00449096809B9022000E089
:104DE0000020704780000020A000002001490868D2
:104DF00070470000780000202DE9F0414FF00008D6
:104E00005E48006800287DD15D480068451C5C480C
:104E10000560EDB95B480068006808B9012000E052
:104E2000002028B940F6C72257A15CA0FBF7A4FADE
:104E3000544807685D480068524908605B4807604D
:104E40005B480068401C5A490860FEF7C1FE00BF7D
:104E500058480068854277D300BF4A480068006818
:104E600008B9012000E0002020B14FF0FF30514987
:104E7000086068E043480068C068C4686668B54276
:104E800002D24C4806605EE06069D4E902128A6092
:104E9000D4E902214A60211D42688A4201D1E168B9
:104EA0004160002262610168491E0160A06A98B1F8
:104EB000A06AD4E907128A60D4E907214A6004F1A4
:104EC000180142688A4201D1216A41600022A2622F
:104ED0000168491E016000BF94F82C100120884031
:104EE00035490968084334490860E16A01EB8101EA
:104EF000324A02EB81014868A0608268E260211DAD
:104F0000826800E032E051608160E16A01EB81017A
:104F10002A4A02EB81026261E16A01EB8101274AC0
:104F200052F82110491CE26A02EB8202234B43F83B
:104F300022102349E06A0968C96A88428DD34FF07C
:104F400001088AE700E000BF1D480068C06A00EB66
:104F500080001A4951F82000012801D94FF00108BA
:104F60001848006808B14FF0010804E016480068CE
:104F7000401C154908604046BDE8F081A0000020B3
:104F800078000020680000202E2E5C667265655255
:104F9000544F535C7461736B732E63004572726F70
:104FA000723A2025732C2025640D0A006C00002025
:104FB0008C000020940000207C000020842E002023
:104FC00064000020880000208400002070B50546A1
:104FD0002C460026002D5ED030480068844201D166
:104FE000012000E0002028B941F24F022CA131A09D
:104FF000FBF7C2F9206D28B941F2500228A12DA07B
:10500000FBF7BAF9206D401E2065E16CE06A88422A
:1050100041D0206D00283ED1201DFFF7CFF840B9C8
:1050200094F82C10012088402649096881432548BE
:105030000160E06CE062E06AC0F12000A06194F8D9
:105040002C10012088401F49096808431D49086049
:10505000E16A01EB81011C4A02EB81014868A06012
:105060008268E260211D826851608160E16A01EB23
:105070008101154A02EB81026261E16A01EB810163
:10508000114A52F82110491CE26A02EB82020E4BCF
:1050900043F822100126304670BD00006400002055
:1050A0002E2E5C6672656552544F535C7461736B4F
:1050B000732E63004572726F723A2025732C20257F
:1050C000640D0A007C000020842E002070B5064686
:1050D000F068C4682CB940F682423CA140A0FBF7BE
:1050E0004BF9A06AD4E907128A60D4E907214A6023
:1050F00004F1180142688A4201D1216A416000220C
:10510000A2620168491E01603948006800283DD14B
:105110006069D4E902128A60D4E902214A60211D43
:1051200042688A4201D1E1684160002262610168FF
:10513000491E016094F82C10012088402D4909680F
:1051400008432C490860E16A01EB81012A4A02EB1D
:1051500081014868A0608268E260211D8268516018
:105160008160E16A01EB8101234A02EB8102626105
:10517000E16A01EB8101204A52F82110491CE26AE0
:1051800002EB82021C4B43F8221010E01B494868D6
:10519000E0618268226204F11801826851608160D6
:1051A000164AA26211460968491C116000BF1449E1
:1051B000E06A0968C96A884204D9012501201149B9
:1051C000086000E00025284670BD00002E2E5C66B9
:1051D00072656552544F535C7461736B732E630038
:1051E0004572726F723A2025732C2025640D0A00D7
:1051F000A00000207C000020842E00202C31002004
:10520000640000208800002070B50024002650486B
:10521000006828B940F6B3024EA153A0FBF7ACF8E2
:10522000FFF716F84A480068401E494908600846DA
:10523000006800287ED15048006800287AD05BE0E2
:105240004E48C068C468A06AD4E907128A60D4E9ED
:1052500007214A6004F1180142688A4201D1216A9B
:1052600041600022A2620168491E01606069D4E9C0
:1052700002128A60D4E902214A60211D42688A42F2
:1052800001D1E1684160002262610168491E01604C
:1052900094F82C100120884039490968084338499E
:1052A0000860E16A01EB8101364A02EB810148683E
:1052B000A0608268E260211D826851608160E16ABD
:1052C00001EB81012F4A02EB81026261E16A01EB8D
:1052D00081012C4A52F82110491CE26A02EB820239
:1052E000284B43F822102849E06A0968C96A8842B5
:1052F00002D30120254908602048006808B9012030
:1053000000E0002000289BD00CB1FEF761FC204893
:10531000056865B100BFFFF76FFD10B101201B49A3
:1053200008606D1E002DF6D100201949086017484D
:10533000006800E008E038B1012630071549086030
:10534000BFF34F8FBFF36F8FFEF7BAFF304670BDCC
:10535000A00000202E2E5C6672656552544F535C8F
:105360007461736B732E63004572726F723A2025FD
:10537000732C2025640D0A00740000202C310020BD
:105380007C000020842E0020640000208800002083
:105390008400002004ED00E01CB50024FEF750F866
:1053A0000B48006858B10B481F2100234FF480724E
:1053B000CDE9001008A10A48FFF7D8FC04462CB933
:1053C00040F2191207A10DA0FAF7D6FF20461CBD26
:1053D000AC000020B0000020546D722053766300B2
:1053E000C93C00082E2E5C6672656552544F535CB2
:1053F00074696D6572732E63000000004572726FF0
:10540000723A2025732C2025640D0A0010B500295E
:105410000AD00878002807D005487844FCF7E8F857
:10542000002801D0002010BD0248784410BD0000C3
:10543000220E00001A0E000010B500290AD00878CC
:10544000002807D005487844FCF7D2F8002801D09E
:10545000002010BD0248784410BD0000120E00006C
:105460000A0E000021F00042A2F16052B2F5801F46
:1054700001F0004328BFD2F17F6C0BD95FEA001C1A
:1054800043EAC20242EB507018BF704728BF20F0B9
:1054900001007047B2F5801FBCBF184670474FEA45
:1054A000410C1CF5001F02D2084600F0D9BC70B5B3
:1054B00000F00EFB00000089FFF7F6BF4FF0004040
:1054C000A0F580007047000010B591EA030F48BFB7
:1054D00083F0004300F15883841A71EB030C05D26A
:1054E000121943EB0C03001B61EB0C01DFF824E104
:1054F0004FEA1154A4EB135C1EEA430F18BF9EEA57
:10550000445F73D023EA0E03DCF1200E21EA04513C
:1055100043F4801332D322FA0CFE10EB0E0023FA70
:105520000CFE41EB0E01CCF1200E03FA0EFE10EB47
:105530000E0051F10001B1F5801FCCF1200E32D2E6
:1055400001EB045112FA0EF2BDE8104058BF70474B
:10555000401C38BF5FEA420218BF7047002814BFE2
:1055600020F0010041F100014FEA410313F5001F53
:1055700038BF7047A1F1C04100F0F8BA012A43EBEF
:105580000302ACF1200CDCF11F0E32BF4FF0000E15
:1055900023FA0CF310EB030041EB0451B4EB115F61
:1055A000D0D0A1EB045101F5801149085FEA300029
:1055B00001EB04510ED350F1000038BF12FA0EFE79
:1055C00008D1BDE81040C9E7401C38BF5FEA42027D
:1055D000CAD1C3E7BDE810404FEA410313F5001FED
:1055E00038BF7047A1F1C04100F0C0BA9EEA445FE5
:1055F00008D011EA5E0FBDE8104004BF01F0004181
:1056000000207047BDE8104070B500F061FA00BF9F
:1056100064FBBE3E0000E0FF2DE9C04130B4DFF87E
:10562000A0C23CEA111418BF3CEA131400F0EC804D
:1056300081EA03051CEA111444EAD57418BF1CEA78
:10564000131500F0C780A4EB05044FF0004545EAB0
:10565000C12145EAC32341EA505143EA525304F1C0
:105660007F74994204F500344FEAC0204FEAC22209
:1056700008BF904200F09C804FEA13650FF240167D
:10568000765D4FEA134506FB05F7C7F1807706FB09
:1056900007F74FEAD737A7FB03687642C8F580388B
:1056A000A7FB06CE38BFA8F1010807FB08E64FF0BC
:1056B000000EA6FB028CE6FB03CEDCF1000CCEF163
:1056C000004E38BFAEF1010EA6FB0C584FF000079C
:1056D0004FF00005E6FB0E87A1FB08C6A0FB07CE36
:1056E00016EB0E0645F10005E1FB076515F1E04EEE
:1056F0007EBFA4F580345FEA46066D4116F180074F
:1057000045F100054FEA17274FEA066647EA0567A5
:10571000A6F1DE46B6F1805F4FEA15251FD938465F
:1057200024F0010C05EBC471BCF1FE6F01EB0C1110
:1057300002D8F0BCBDE8008124425CBF01F5801EA8
:105740009EEAC47F02D4F0BCBDE80081244238D474
:10575000F0BCA1F1C041BDE8004100F007BA4FEA3A
:10576000D22242EA43524FEAD323A7FB02864FEAF2
:10577000D02040EA415007FB03661EEA0E0F4FEAB5
:10578000D12105FB026658BFA6EB0056B6EB0056CA
:105790004FEA520E4EEAC37E18EB0E0E56EB530E36
:1057A000BDD518EB02085E417F1C55F10005B6E738
:1057B0004FF480154FF000074FF000064FF000083F
:1057C000ADE7F0BC4FF0000001F1C04101F0004135
:1057D000BDE8008111EA0C1F0CEA131500D00CE0A3
:1057E00013EA0C1F00F025804FF00000F0BC81EAA6
:1057F000030101F00041BDE80081F0BCBDE80041BB
:1058000081EA030100F0B2B9F0BCBDE8004170B517
:1058100000F05EF9097EFC3E00F007B881EA030162
:105820004FF0000001F00041704781EA030100F0F1
:105830009DB9F0BCBDE800414FF000002149704720
:10584000FFFDFBF9F7F5F4F2F0EEEDEBE9E8E6E445
:10585000E3E1E0DEDDDBDAD8D7D5D4D3D1D0CFCDCC
:10586000CCCBCAC8C7C6C5C4C2C1C0BFBEBDBCBB05
:10587000BAB9B8B7B6B5B4B3B2B1B0AFAEADACAB00
:10588000AAA9A8A8A7A6A5A4A3A3A2A1A09F9F9EDA
:105890009D9C9C9B9A99999897979695959493938C
:1058A000929191908F8F8E8E8D8C8C8B8B8A898923
:1058B00088888787868585848483838282818180A6
:1058C0000000FF070000F87F4FEA41034FEA5353FF
:1058D000A3F58063D3F11E03C8BFD3F1210C0CDD07
:1058E0004FF0004242EAC12242EA505232FA03FC2F
:1058F0008CEAE17CACEBE1707047102BC4BF002058
:10590000704703F5787CBCF1FF3F04D06FF0004294
:1059100082EA2100704770B500F0DAF849922480DD
:1059200000207047F2E710F0004248BF4042B0FA52
:1059300080F310FA03F10AD0C3F11D0303F580636D
:105940004FEA415002EB035202EBD12170474FF076
:1059500000007047B0FA80F310FA03F10AD0C3F1E7
:105960001D0303F580634FEA41504FEA035202EBF7
:10597000D12170474FF0000070470000DFF848C1A8
:1059800070B51CEA111E1EBF1CEA13159EEA0C0F0F
:1059900095EA0C0F00F06F8081EA030423EA4C13B0
:1059A0004EEAD47E21EA4C1141F4801143F4801375
:1059B000AE44A1FB024CA0FB0365AEF17F7E36191D
:1059C00055EB0C05A1FB034C4CF10003A0FB021CA2
:1059D00016EB0C06654153F10003094218BF46F06F
:1059E000010613F4007F0BD14FEA03314FEA053073
:1059F000340341EA155140EA16506FF003020AE001
:105A00004FEAC3214FEAC520F40241EA555140EA6A
:105A100056506FF0020202EB2E4201EB025585EA6E
:105A2000CE710AD05FEA440C18BF24F0004450F154
:105A3000000041F1000120EAD47040F2FE7C624592
:105A400000D270BDA84214BF4FF080444FF04044D4
:105A5000002E08BF0024BEF1806FA8BFA1F1C04195
:105A6000BDE8704080F282804FF0000001F1C0413B
:105A700001F0004170479EEA0C0F0CEA131518BFA5
:105A800095EA0C0F06D04FF0000081EA030E0EF0ED
:105A9000004170BD00F01CF88900013E00F007B81D
:105AA00000F009B84FEA430C5FEA5C5C08D081EA79
:105AB000030100F05BB84FEA410C5FEA5C5CF6D191
:105AC0004FF00000014970470000FF070000F87F19
:105AD0000EF1020E2EF0030E5EF8046B364205D472
